{
  "_format": "hh-sol-artifact-1",
  "contractName": "SimpleJsonArrayStorage",
  "sourceName": "contracts/SimpleJsonArrayStorage.sol",
  "abi": [
    {
      "anonymous": false,
      "inputs": [
        {
          "indexed": true,
          "internalType": "uint256",
          "name": "index",
          "type": "uint256"
        },
        {
          "indexed": true,
          "internalType": "address",
          "name": "sender",
          "type": "address"
        }
      ],
      "name": "JsonStringAdded",
      "type": "event"
    },
    {
      "inputs": [
        {
          "internalType": "string",
          "name": "_jsonString",
          "type": "string"
        }
      ],
      "name": "addJsonString",
      "outputs": [
        {
          "internalType": "uint256",
          "name": "",
          "type": "uint256"
        }
      ],
      "stateMutability": "nonpayable",
      "type": "function"
    },
    {
      "inputs": [],
      "name": "getJsonCount",
      "outputs": [
        {
          "internalType": "uint256",
          "name": "",
          "type": "uint256"
        }
      ],
      "stateMutability": "view",
      "type": "function"
    },
    {
      "inputs": [
        {
          "internalType": "uint256",
          "name": "_index",
          "type": "uint256"
        }
      ],
      "name": "getJsonStringByIndex",
      "outputs": [
        {
          "internalType": "string",
          "name": "",
          "type": "string"
        }
      ],
      "stateMutability": "view",
      "type": "function"
    },
    {
      "inputs": [
        {
          "internalType": "uint256",
          "name": "",
          "type": "uint256"
        }
      ],
      "name": "storedJsonStrings",
      "outputs": [
        {
          "internalType": "string",
          "name": "",
          "type": "string"
        }
      ],
      "stateMutability": "view",
      "type": "function"
    }
  ],
  "bytecode": "0x608060405234801561001057600080fd5b506105e5806100206000396000f3fe608060405234801561001057600080fd5b506004361061004c5760003560e01c80633c817e7414610051578063a26e46fc1461007a578063c1d3ee7a1461008d578063cf4cf1c9146100ae575b600080fd5b61006461005f3660046102fb565b6100b6565b6040516100719190610314565b60405180910390f35b6100646100883660046102fb565b610162565b6100a061009b366004610378565b61027b565b604051908152602001610071565b6000546100a0565b600081815481106100c657600080fd5b9060005260206000200160009150905080546100e190610429565b80601f016020809104026020016040519081016040528092919081815260200182805461010d90610429565b801561015a5780601f1061012f5761010080835404028352916020019161015a565b820191906000526020600020905b81548152906001019060200180831161013d57829003601f168201915b505050505081565b60005460609082106101ce5760405162461bcd60e51b815260206004820152602b60248201527f53696d706c654a736f6e417272617953746f726167653a20496e646578206f7560448201526a74206f6620626f756e647360a81b606482015260840160405180910390fd5b600082815481106101e1576101e1610463565b9060005260206000200180546101f690610429565b80601f016020809104026020016040519081016040528092919081815260200182805461022290610429565b801561026f5780601f106102445761010080835404028352916020019161026f565b820191906000526020600020905b81548152906001019060200180831161025257829003601f168201915b50505050509050919050565b600080546001810182558180527f290decd9548b62a8d60345a988386fc84ba6bc95484008f6362f93160ef3e563016102b483826104c8565b50600080546102c590600190610588565b604051909150339082907f28f2fd9bb1ea3a545286ef73873f3cd50dfd5111f86b124652f375a53ff74d8490600090a392915050565b60006020828403121561030d57600080fd5b5035919050565b600060208083528351808285015260005b8181101561034157858101830151858201604001528201610325565b506000604082860101526040601f19601f8301168501019250505092915050565b634e487b7160e01b600052604160045260246000fd5b60006020828403121561038a57600080fd5b813567ffffffffffffffff808211156103a257600080fd5b818401915084601f8301126103b657600080fd5b8135818111156103c8576103c8610362565b604051601f8201601f19908116603f011681019083821181831017156103f0576103f0610362565b8160405282815287602084870101111561040957600080fd5b826020860160208301376000928101602001929092525095945050505050565b600181811c9082168061043d57607f821691505b60208210810361045d57634e487b7160e01b600052602260045260246000fd5b50919050565b634e487b7160e01b600052603260045260246000fd5b601f8211156104c357600081815260208120601f850160051c810160208610156104a05750805b601f850160051c820191505b818110156104bf578281556001016104ac565b5050505b505050565b815167ffffffffffffffff8111156104e2576104e2610362565b6104f6816104f08454610429565b84610479565b602080601f83116001811461052b57600084156105135750858301515b600019600386901b1c1916600185901b1785556104bf565b600085815260208120601f198616915b8281101561055a5788860151825594840194600190910190840161053b565b50858210156105785787850151600019600388901b60f8161c191681555b5050505050600190811b01905550565b818103818111156105a957634e487b7160e01b600052601160045260246000fd5b9291505056fea2646970667358221220ad6688dddf36fdc35d7cdf908cb01ce9561497ca2b1a157fa9b1cc77ffb5418f64736f6c63430008120033",
  "linkReferences": {},
  "deployedLinkReferences": {}
}